{
  "transactions": [
    {
      "hash": "0x4a41cfb83fa5893a5b928ba25621e768235ef893e302695daba9e26b5204c882",
      "transactionType": "CALL",
      "contractName": null,
      "contractAddress": "0x779877a7b0d9e8603169ddbd7836e478b4624789",
      "function": "transferAndCall(address,uint256,bytes)",
      "arguments": [
        "0x9DdfaCa8183c41ad55329BdeeD9F6A8d53168B1B",
        "3000000000000000000",
        "0x2f4f78b39790b091f663591a4be996d00127f32c28fba1f9034da9b642d4d7d1"
      ],
      "transaction": {
        "from": "0x34eb85766aad840c0f946822fec8113e343a1182",
        "to": "0x779877a7b0d9e8603169ddbd7836e478b4624789",
        "gas": "0x14cbb",
        "value": "0x0",
        "input": "0x4000aea00000000000000000000000009ddfaca8183c41ad55329bdeed9f6a8d53168b1b00000000000000000000000000000000000000000000000029a2241af62c0000000000000000000000000000000000000000000000000000000000000000006000000000000000000000000000000000000000000000000000000000000000202f4f78b39790b091f663591a4be996d00127f32c28fba1f9034da9b642d4d7d1",
        "nonce": "0x4",
        "chainId": "0xaa36a7"
      },
      "additionalContracts": [],
      "isFixedGasLimit": false
    }
  ],
  "receipts": [
    {
      "status": "0x1",
      "cumulativeGasUsed": "0xa4a1ba",
      "logs": [
        {
          "address": "0x779877a7b0d9e8603169ddbd7836e478b4624789",
          "topics": [
            "0xddf252ad1be2c89b69c2b068fc378daa952ba7f163c4a11628f55a4df523b3ef",
            "0x00000000000000000000000034eb85766aad840c0f946822fec8113e343a1182",
            "0x0000000000000000000000009ddfaca8183c41ad55329bdeed9f6a8d53168b1b"
          ],
          "data": "0x00000000000000000000000000000000000000000000000029a2241af62c0000",
          "blockHash": "0x1e61d6a9fe1815f48ef7a153fc14d401407d508b13fa425bdfe1c42f24becffb",
          "blockNumber": "0x77c4a7",
          "blockTimestamp": "0x67ca61c0",
          "transactionHash": "0x4a41cfb83fa5893a5b928ba25621e768235ef893e302695daba9e26b5204c882",
          "transactionIndex": "0xa1",
          "logIndex": "0x8f",
          "removed": false
        },
        {
          "address": "0x779877a7b0d9e8603169ddbd7836e478b4624789",
          "topics": [
            "0xe19260aff97b920c7df27010903aeb9c8d2be5d310a2c67824cf3f15396e4c16",
            "0x00000000000000000000000034eb85766aad840c0f946822fec8113e343a1182",
            "0x0000000000000000000000009ddfaca8183c41ad55329bdeed9f6a8d53168b1b"
          ],
          "data": "0x00000000000000000000000000000000000000000000000029a2241af62c0000000000000000000000000000000000000000000000000000000000000000004000000000000000000000000000000000000000000000000000000000000000202f4f78b39790b091f663591a4be996d00127f32c28fba1f9034da9b642d4d7d1",
          "blockHash": "0x1e61d6a9fe1815f48ef7a153fc14d401407d508b13fa425bdfe1c42f24becffb",
          "blockNumber": "0x77c4a7",
          "blockTimestamp": "0x67ca61c0",
          "transactionHash": "0x4a41cfb83fa5893a5b928ba25621e768235ef893e302695daba9e26b5204c882",
          "transactionIndex": "0xa1",
          "logIndex": "0x90",
          "removed": false
        },
        {
          "address": "0x9ddfaca8183c41ad55329bdeed9f6a8d53168b1b",
          "topics": [
            "0x1ced9348ff549fceab2ac57cd3a9de38edaaab274b725ee82c23e8fc8c4eec7a",
            "0x2f4f78b39790b091f663591a4be996d00127f32c28fba1f9034da9b642d4d7d1"
          ],
          "data": "0x00000000000000000000000000000000000000000000000029a2241af62c000000000000000000000000000000000000000000000000000053444835ec580000",
          "blockHash": "0x1e61d6a9fe1815f48ef7a153fc14d401407d508b13fa425bdfe1c42f24becffb",
          "blockNumber": "0x77c4a7",
          "blockTimestamp": "0x67ca61c0",
          "transactionHash": "0x4a41cfb83fa5893a5b928ba25621e768235ef893e302695daba9e26b5204c882",
          "transactionIndex": "0xa1",
          "logIndex": "0x91",
          "removed": false
        }
      ],
      "logsBloom": "0x00000004000000000000000000000000000000000020000000000000020000000000000000000000000000000000000000000000000000000000000400000000000000000000000000000008000000000000000000000000000020000020000008000000000000000000000000000000000000000000000020000018000040000000000000000000000000010000800000000020000000000000000000000000000000000000000000000000010000000000000000000000000004000000000000000202000000000000000000002000000000000000000100000002000000000010000000000000800000000000000000000000000000000000000000000000",
      "type": "0x2",
      "transactionHash": "0x4a41cfb83fa5893a5b928ba25621e768235ef893e302695daba9e26b5204c882",
      "transactionIndex": "0xa1",
      "blockHash": "0x1e61d6a9fe1815f48ef7a153fc14d401407d508b13fa425bdfe1c42f24becffb",
      "blockNumber": "0x77c4a7",
      "gasUsed": "0xf0e5",
      "effectiveGasPrice": "0x118034",
      "from": "0x34eb85766aad840c0f946822fec8113e343a1182",
      "to": "0x779877a7b0d9e8603169ddbd7836e478b4624789",
      "contractAddress": null
    }
  ],
  "libraries": [],
  "pending": [],
  "returns": {},
  "timestamp": 1741316544,
  "chain": 11155111,
  "commit": "f10e727"
}